:100000000EC015C014C013C012C011C010C00FC064
:100010000EC00DC00CC00BC00AC009C008C011241E
:100020001FBECFE5D2E0DEBFCDBF02D040C0E8CFDB
:1000300082E087BB84E088BB20E23EE403C0C901C4
:100040000197F1F7B299FBCF20E030E048EC50E0A7
:10005000C19A8FEF9FEFFA013197F1F70197D9F726
:10006000C1988FEF9FEFFA013197F1F70197D9F718
:100070002F5F3F4F2A30310559F7C19A8FEF9FEF1D
:1000800028EC30E0F9013197F1F70197D9F7C198E1
:1000900081E088BB8FEF9FEF28EC30E0F9013197CA
:1000A000F1F70197D9F718BA80E090E00895F89435
:0200B000FFCF80
:00000001FF
